{
  "contractName": "DataStore",
  "abi": [
    {
      "inputs": [],
      "name": "data",
      "outputs": [
        {
          "internalType": "string",
          "name": "",
          "type": "string"
        }
      ],
      "stateMutability": "view",
      "type": "function",
      "constant": true
    },
    {
      "inputs": [
        {
          "internalType": "string",
          "name": "input",
          "type": "string"
        }
      ],
      "name": "set",
      "outputs": [],
      "stateMutability": "nonpayable",
      "type": "function"
    }
  ],
  "bytecode": "0x60c0604052600c60808190526b44656661756c74204461746160a01b60a090815261002d9160009190610040565b5034801561003a57600080fd5b506100db565b828054600181600116156101000203166002900490600052602060002090601f016020900481019282601f1061008157805160ff19168380011785556100ae565b828001600101855582156100ae579182015b828111156100ae578251825591602001919060010190610093565b506100ba9291506100be565b5090565b6100d891905b808211156100ba57600081556001016100c4565b90565b6102d6806100ea6000396000f3fe608060405234801561001057600080fd5b50600436106100365760003560e01c80634ed3885e1461003b57806373d4a13a146100e3575b600080fd5b6100e16004803603602081101561005157600080fd5b81019060208101813564010000000081111561006c57600080fd5b82018360208201111561007e57600080fd5b803590602001918460018302840111640100000000831117156100a057600080fd5b91908080601f016020809104026020016040519081016040528093929190818152602001838380828437600092019190915250929550610160945050505050565b005b6100eb610177565b6040805160208082528351818301528351919283929083019185019080838360005b8381101561012557818101518382015260200161010d565b50505050905090810190601f1680156101525780820380516001836020036101000a031916815260200191505b509250505060405180910390f35b8051610173906000906020840190610205565b5050565b6000805460408051602060026001851615610100026000190190941693909304601f810184900484028201840190925281815292918301828280156101fd5780601f106101d2576101008083540402835291602001916101fd565b820191906000526020600020905b8154815290600101906020018083116101e057829003601f168201915b505050505081565b828054600181600116156101000203166002900490600052602060002090601f016020900481019282601f1061024657805160ff1916838001178555610273565b82800160010185558215610273579182015b82811115610273578251825591602001919060010190610258565b5061027f929150610283565b5090565b61029d91905b8082111561027f5760008155600101610289565b9056fea26469706673582212202b0c595079a28e512007be5bccc735b7edab41755286677f4f182bc0cb66653264736f6c63430006060033",
  "source": "pragma solidity >= 0.5.0 < 0.7.0;\n\ncontract DataStore {\n    string public data = \"Default Data\";\n\n    function set(string memory input) public {\n        data = input;\n    }\n}\n",
  "sourcePath": "/media/dhiraj/code/dapps/my-dapp/contracts/DataStore.sol",
  "compiler": {
    "name": "solc",
    "version": "0.6.6+commit.6c089d02.Emscripten.clang"
  },
  "schemaVersion": "3.0.23",
  "updatedAt": "2020-04-09T16:58:15.199Z",
  "networkType": "ethereum",
  "devdoc": {
    "methods": {}
  },
  "userdoc": {
    "methods": {}
  }
}