{
  "contractName": "MyContract",
  "abi": [
    {
      "inputs": [],
      "name": "data",
      "outputs": [
        {
          "internalType": "uint256",
          "name": "",
          "type": "uint256"
        }
      ],
      "stateMutability": "view",
      "type": "function",
      "constant": true
    },
    {
      "inputs": [
        {
          "internalType": "uint256",
          "name": "input",
          "type": "uint256"
        }
      ],
      "name": "set",
      "outputs": [],
      "stateMutability": "nonpayable",
      "type": "function"
    }
  ],
  "bytecode": "0x60806040526000805534801561001457600080fd5b5060ac806100236000396000f3fe6080604052348015600f57600080fd5b506004361060325760003560e01c806360fe47b114603757806373d4a13a146053575b600080fd5b605160048036036020811015604b57600080fd5b5035606b565b005b60596070565b60408051918252519081900360200190f35b600055565b6000548156fea2646970667358221220b8c5b31cc055a339cc914b4ff9109fcd81b0c4e903bc51ab3cc233cdec1b10d964736f6c63430006050033",
  "source": "pragma solidity ^0.6.0;\n\ncontract MyContract {\n    uint public data = 0;\n\n    function set(uint input) public {\n        data = input;\n    }\n}\n",
  "sourcePath": "/media/dhiraj/code/dapps/my-dapp/contracts/MyContract.sol",
  "compiler": {
    "name": "solc",
    "version": "0.6.5+commit.f956cc89.Emscripten.clang"
  },
  "schemaVersion": "3.0.23",
  "updatedAt": "2020-04-09T10:21:46.021Z",
  "networkType": "ethereum",
  "devdoc": {
    "methods": {}
  },
  "userdoc": {
    "methods": {}
  }
}